:0300000002058076
:0C058000787FE4F6D8FD7581390205C7CC
:0408E500D2A07F0519
:0808E90000AE071FEE70F922BA
:0F08C900D2A11208E5C2A17F051208E9C2A02240
:0C08F100C2A11208E5D2A17F050208E9AF
:1008A100C2A0A20092A17F051208E91208E5C2A028
:0708B100D2A17F050208E956
:1008B8001208E5A2A19200C2A07F051208E9A200D1
:0108C800220D
:0207EF00AD0754
:1007F100E4FCC2A07F051208E9ED30E704D2A18034
:1008010002C2A17F051208E9D2A0ED25E0FD7F0516
:090811001208E90CBC08DBC2A0CE
:01081A0022BB
:10086700E4FC1208E5ED25E0FD30A103430501C2D4
:0C087700A07F051208E90CBC08E8AF05E2
:010883002252
:1002F8007508E07509D0750AC1750BB0120884122B
:1003080008D81200031207AD8F10AC10E41201CE0A
:100318007BCD7ACC794C7842120127E4FBFA79C874
:10032800784212001E8F0F8E0E8D0D8C0C12060C4B
:10033800BFE1037508E112060CBFE0037508E0127F
:10034800060CBFD1037509D112060CBFD00375097D
:10035800D012060CBFC103750AC112060CBFC00338
:10036800750AC012060CBFB103750BB112060CBF9B
:10037800B003750BB0E50864E07045E50BB4B1094E
:10038800AD1DAC1CE4FF12040EE50B64B07031E542
:100398000AB4C119AF0FAE0EAD0DAC0C120202AD0E
:1003A80007AC067F0112040EAF10120847E50AB425
:1003B800C00E7DC87C007F0112040E7F66120847BC
:1003C800E508B4E108E4FDFC7F0212040EE509B477
:1003D800D014AF0FAE0EAD0DAC0C120202AB0BADCC
:1003E8001DAC1C1204DDE50964D1600302030DAFE6
:1003F8000FAE0EAD0DAC0C120202E4FBAD1DAC1C31
:060408001204DD02030DE9
:10088400E5A0541F44A0F5A07580AF53A01FE5A0B8
:0D089400541F4490F5A07580FF53A01F2253
:10000300538EBF53890F438910758BCD758DF8D2ED
:08001300AFD2ABC28FD28E22E6
:1004DD00E5A0541F4490F5A07580FFEB700BD28002
:1004ED00D281D282D28302057CD3EF9496EE940012
:1004FD005002D282C3EF9496EE9400400AEF94FA24
:10050D00EE94005002C282C3EF94FAEE9400400ABA
:10051D00EF945EEE94015002D282C3EF945EEE949E
:10052D00014002C282D3ED94F4EC94015002D283C7
:10053D00C3ED94DCEC9405400AED94C4EC940950A1
:10054D0002C283C3ED94C4EC9409400AED94ACEC63
:10055D00940D5002D283C3ED94ACEC940D4002C2C5
:10056D0083BBB004C280D281BBB104D280C281539F
:03057D00A01F229A
:0D08D800438904E4F58AF58CC28DC28C22A0
:03001B0002069644
:10069600C0E0C0F0C083C082C0D075D000C000C02A
:1006A60001C002C003C004C005C006C007051BE5A3
:1006B6001B7002051A758BCD758DF812076412072B
:1006C6000DC3E51B94C2E51A94014020751A007506
:1006D6001B00C28CAF8CEFFEAD8A7C00E42DF51DAD
:1006E600EC3EF51C758C00758A00D28CD007D006BE
:1006F600D005D004D003D002D001D000D0D0D08213
:07070600D083D0F0D0E032F7
:0A08FD00C0F9A4B0999282F880902F
:0D081B000832FFFFFFFFFFFFFFFF0131006C
:10076400E5A0541F44E0F5A07580FF53A01FE5A049
:10077400541F44C0F5A0AF317480A807088002C399
:1007840013D8FCF58053A01FE5A0541F44E0F5A046
:1007940074322531F8E6F58053A01FE531C3940780
:0807A4005003053122E4F53198
:0107AC00222A
:06040E008C118D12AB07FA
:10041400EB7052FAAE11AF127C007D0A1202957491
:10042400162AF8A605AE11AF127C007D0A120295B9
:100434008E118F120ABA04DC7A0374162AF8E6B411
:10044400FF0976FF1AEAC3940050EF75398EE5165A
:100454009008FD93F532E51793F533E51893F534D9
:10046400E51993F535EB6401705CAE11AF12FC7DB8
:100474000A1202958D13AE11AF127C007D0A12028E
:10048400957C007D0A1202958D14AE11AF127C008A
:100494007D641202957C007D0A120295AA05AE11B4
:1004A400AF127C037DE81202958F157539C1E513EF
:1004B4009008FD93F532E51493F533AF02EF9354AE
:1004C4007FF5347535FFBB020F7539FF7532FF7543
:0804D40033FF7534FF7535FF9D
:0104DC0022FD
:10082800042D010101010421FFFFFFFF0125000143
:0E08380026000127000128000429010101010A
:10070D00E52125E0FFA2B0E4334FF521E52225E0F8
:10071D00FFA2B1E4334FF522E52325E0FFA2B2E4B9
:10072D00334FF523E52425E0FFA2B3E4334FF52441
:10073D00E4FF74212FF8E6540FFEBE0F06742D2F23
:10074D00F8760174212FF8E6540F7006742D2FF8EA
:06075D00E4F60FBF04DC0E
:010763002273
:10060C00E4FE742D2EF8E6FD74292EF8E6FC6D60E0
:10061C0069EC6066EE1460211460351460482403A4
:10062C0070580525532501E52570047FE0804BE5C6
:10063C0025640170457FE180410526532601E5269E
:10064C0070047FD08034E5266401702E7FD1802A1F
:10065C000527532701E52770047FC0801DE527B4CB
:10066C0001187FC180140528532801E52870047FE8
:10067C00B08007E528B401027FB174292EF8A605D5
:09068C000EEE6404600302060E88
:010695002242
:1007AD001208C97F901207EF1208B87F431207EFA6
:1007BD001208B81208F11208C97F911207EF12083A
:1007CD00B81208678F11C2001208A11208F1AF11FB
:1007DD007E007C017DF41202831C7DFF1202958F39
:0107ED0011FA
:0107EE0022E8
:100847008F111208C97F901207EF1208B87F401264
:1008570007EF1208B8AF111207EF1208B80208F134
:10001E00EC4D6011E8497017ED33EC3304600DE4DC
:10002E00FCFFFEFD22E933E8330470F802026E1283
:10003E00023958046009E4CC248150062850090284
:10004E000278284003020275C0E0EB4A7044B98082
:10005E0006D0E0FB020264EF4E701CBD8008EBFF81
:10006E00EAFEE9FD80EBE98DF0A4FEE5F002010762
:10007E00E9CDF9EAFEEBFFEF89F0A4FCE5F0CE89BD
:10008E00F0A42EFFE435F0CD89F0A42DFEE435F07A
:10009E008067EF4E7005BD80D780C3EF8BF0A4ACA8
:1000AE00F0EE8BF0A42CFCE435F0F8EF8AF0A42CE3
:1000BE00E5F038FCE433CB8DF0A42CFCE5F03BF8F6
:1000CE00EE8AF0A42CFCE5F038F8E433CF89F0A4E6
:1000DE002CFCE5F038CF3400CE89F0A42FFFE5F0EC
:1000EE003EFEE433C98DF0A42EFEE5F039CD8AF044
:1000FE00A42FFFE5F03EFEE43DFD33D0E0FB5007BC
:10010E000BBB000F020278EC2CFCEF33FFEE33FE3C
:06011E00ED33FD0202506A
:10012400020278EC5D046005E85904700302026E73
:10013400120239580460F6EC4860F2EC7004FDFEDB
:10014400FF22C860DB2481C85009C39860025006AE
:100154000202759850CAF582E9294B4A7005AB82B0
:1001640002026475F0007C1A7880C3EF9BEE9AED6E
:1001740099400DC3EF9BFFEE9AFEED99FDE842F026
:10018400DC23ACF0D0E0FFD0E0FED0E0FDAB822079
:10019400E7101BEB60BAEC2CFCEF33FFEE33FEED03
:1001A40033FD020250E803F830E705C0F075F000B3
:1001B400EF2FFFEE33FEED33FD40B830E7C280AAE7
:1001C40075F020800E75F010800575F0087D007EB6
:1001D400007F003392D530D5031202EAEC3340108D
:1001E400EF33FFEE33FEED33FDEC33FCD5F0ED22BF
:0E01F400E5F0247EA2D513CC92E7CDCEFF22FB
:10020200EDD2E7CD33EC3392D524814006E4FFFEF4
:10021200FDFC22FCE4CFCECDCC24E0501174FF8053
:10022200EDC3CC13CCCD13CDCE13CECF13CF0470F0
:07023200F030D5DE0202EA04
:10023900E9D2E7C933E833F892D5EDD2E7CD33EC0B
:0702490033FC5002B2D52284
:10025000EC30E7100FBF000C0EBE00080DBD00040F
:100260000BEB6014A2D5EB13FCED92E7FD2274FFBB
:10027000FCFDFEFF22E480F8A2D574FF13FC7D8014
:03028000E480EF28
:10058C000202F8E493A3F8E493A34003F68001F28B
:10059C0008DFF48029E493A3F85407240CC8C33370
:1005AC00C4540F4420C8834004F456800146F6DF3F
:1005BC00E4800B010204081020408090081BE47EAC
:1005CC00019360BCA3FF543F30E509541FFEE49334
:1005DC00A360010ECF54C025E060A840B8E493A3FB
:1005EC00FAE493A3F8E493A3C8C582C8CAC583CA26
:1005FC00F0A3C8C582C8CAC583CADFE9DEE780BEDE
:0108460000B1
:10028300EF8DF0A4A8F0CF8CF0A428CE8DF0A42E8F
:02029300FE2249
:10029500BC000BBE0029EF8DF084FFADF022E4CC4D
:1002A500F875F008EF2FFFEE33FEEC33FCEE9DEC16
:1002B500984005FCEE9DFE0FD5F0E9E4CEFD22ED5C
:1002C500F8F5F0EE8420D21CFEADF075F008EF2FA6
:1002D500FFED33FD4007985006D5F0F222C398FD97
:0502E5000FD5F0EA2234
:0E02EA00C3E49FFFE49EFEE49DFDE49CFC2225
:00000001FF
